:100000000C9434000C943E000C943E000C943E0082
:100010000C943E000C943E000C943E000C943E0068
:100020000C943E000C943E000C943E000C943E0058
:100030000C943E000C943E000C943E000C943E0048
:100040000C943E000C943E000C943E000C943E0038
:100050000C943E000C943E000C943E000C943E0028
:100060000C943E000C943E0011241FBECFEFD8E04C
:10007000DEBFCDBF0E9440000C948B000C940000AA
:1000800080E48AB91BB82FEF83EC99E021508040BF
:100090009040E1F700C0000079B1707259B1507121
:1000A00069B1687089B1E1E0982F947082FDE0E059
:1000B00021E0611120E081E0911101C080E0822304
:1000C00041E0711140E091E0711101C090E031E038
:1000D000611101C030E039233E2391E0511190E0DD
:1000E00094239823932B2E23922B21E0511101C0AE
:1000F00020E042238423892B8295880F880F807CFF
:100100008BB92FEF83EC99E0215080409040E1F7CC
:0A01100000C00000B8CFF894FFCF44
:00000001FF
