:100000000C9462000C948A000C948A000C948A0070
:100010000C948A000C948A000C948A000C948A0038
:100020000C948A000C948A000C948A000C948A0028
:100030000C948A000C948A000C948A000C948A0018
:100040000C9437030C948A000C94A7030C9481033E
:100050000C948A000C948A000C948A000C948A00F8
:100060000C948A000C948A000000000024002700F1
:100070002A0000000000250028002B0000000000DE
:1000800023002600290004040404040404040202DA
:100090000202020203030303030301020408102007
:1000A0004080010204081020010204081020000012
:1000B0000008000201000003040700000000000027
:1000C0000000370511241FBECFEFD8E0DEBFCDBF43
:1000D00011E0A0E0B1E0E6EEFCE002C005900D9278
:1000E000AC32B107D9F721E0ACE2B1E001C01D921A
:1000F000A03EB207E1F710E0C2E6D0E004C02197CD
:10010000FE010E946B06C136D107C9F70E94D903D0
:100110000C9471060C940000833081F028F4813037
:1001200099F08230A9F008958730A9F08830C9F09D
:100130008430B1F4809180008F7D03C08091800075
:100140008F7780938000089584B58F7784BD08955C
:1001500084B58F7DFBCF8091B0008F778093B00006
:1001600008958091B0008F7DF9CFCF93DF93282F32
:1001700030E0F901E255FF4F8491F901E656FF4F57
:10018000D491F901EA57FF4FC491CC23A1F081111A
:100190000E948C00EC2FF0E0EE0FFF1FE458FF4FA1
:1001A000A591B491EC91ED2381E090E009F480E019
:1001B000DF91CF91089580E090E0FACF1F93CF9325
:1001C000DF93282F30E0F901E255FF4F8491F901C8
:1001D000E656FF4FD491F901EA57FF4FC491CC2363
:1001E000A9F0162F81110E948C00EC2FF0E0EE0F89
:1001F000FF1FEE58FF4FA591B4918FB7F894EC9183
:10020000111108C0D095DE23DC938FBFDF91CF9111
:100210001F910895DE2BF8CFCF93DF9390E0FC0180
:10022000E656FF4F24918A579F4FFC018491882303
:10023000D1F090E0880F991FFC01E859FF4FA5917C
:10024000B491FC01EE58FF4FC591D49161110EC0DD
:100250009FB7F8948C91E22FE0958E238C932881A0
:10026000E223E8839FBFDF91CF9108958FB7F89481
:10027000EC91E22BEC938FBFF6CF3FB7F8948091CF
:100280003F0190914001A0914101B091420126B5FA
:10029000A89B05C02F3F19F00196A11DB11D3FBFBE
:1002A000BA2FA92F982F8827BC01CD01620F711D8D
:1002B000811D911D42E0660F771F881F991F4A9587
:1002C000D1F708958F929F92AF92BF92CF92DF9213
:1002D000EF92FF920E943D014B015C0184EFC82E1A
:1002E000DD24D394E12CF12C0E943D016819790999
:1002F0008A099B09683E734081059105A8F321E0B6
:10030000C21AD108E108F10888EE880E83E0981E31
:10031000A11CB11CC114D104E104F10429F7FF9020
:10032000EF90DF90CF90BF90AF909F908F90089507
:10033000AF92BF92CF92DF92EF92FF920F931F93F3
:10034000CF93DF936C017B018B01040F151FEB0131
:100350005E01AE18BF08C017D10759F06991D601E8
:10036000ED91FC910190F081E02DC6010995892B5A
:1003700079F7C501DF91CF911F910F91FF90EF9019
:10038000DF90CF90BF90AF900895FC01538D448DC6
:10039000252F30E0842F90E0821B930B541710F030
:1003A000CF96089501970895FC01918D828D98173D
:1003B00061F0A28DAE0FBF2FB11D5D968C91928D15
:1003C0009F5F9F73928F90E008958FEF9FEF089546
:1003D000FC01918D828D981731F0828DE80FF11D0F
:1003E000858D90E008958FEF9FEF0895FC01918D2A
:1003F000228D892F90E0805C9F4F821B91098F7323
:100400009927089583E491E00E94F60121E0892B69
:1004100009F420E0822F089580E090E0892B29F0F4
:100420000E94020281110C9400000895FC01A48D29
:10043000A80FB92FB11DA35ABF4F2C91848D90E006
:1004400001968F739927848FA689B7892C93A089E9
:10045000B1898C91837080648C93938D848D981373
:1004600006C00288F389E02D80818F7D8083089506
:10047000EF92FF920F931F93CF93DF93EC0181E0F4
:10048000888F9B8D8C8D98131AC0E889F98980819B
:1004900085FF15C09FB7F894EE89FF896083E889CE
:1004A000F98980818370806480839FBF81E090E0C0
:1004B000DF91CF911F910F91FF90EF900895F62E4D
:1004C0000B8D10E00F5F1F4F0F731127E02E8C8DE7
:1004D0008E110CC00FB607FCFACFE889F98980812C
:1004E00085FFF5CFCE010E941602F1CFEB8DEC0F08
:1004F000FD2FF11DE35AFF4FF0829FB7F8940B8F49
:10050000EA89FB8980818062CFCFCF93DF93EC01B2
:10051000888D8823B9F0AA89BB89E889F9898C91EB
:1005200085FD03C0808186FD0DC00FB607FCF7CFA7
:100530008C9185FFF2CF808185FFEDCFCE010E94A7
:100540001602E9CFDF91CF910895FC0101900020C0
:10055000E9F73197AF01481B590BBC0183E491E0E7
:100560000C9498018F929F92AF92BF92CF92DF929C
:10057000EF92FF920F931F93CF93DF93CDB7DEB728
:10058000A1970FB6F894DEBF0FBECDBF6C01990FD7
:10059000EE08FF08F7FE47C06DE283E491E00E9499
:1005A00038028C0122273327A9012C193D094E0955
:1005B0005F0919A2CE0181967C019AE0892E912CC7
:1005C000A12CB12CCA01B901A50194010E943A06DF
:1005D000605DF70162937F012115310541055105E9
:1005E00089F790E080E0309719F0CF010E94A502D2
:1005F000080F191F86E191E00E94A502800F911F4C
:10060000A1960FB6F894DEBF0FBECDBFDF91CF919C
:100610001F910F91FF90EF90DF90CF90BF90AF9020
:100620009F908F900895A701960119A28E010F5DEA
:100630001F4F8AE0C82ED12CE12CF12CCA01B90140
:10064000A70196010E943A06605DF80162938F014E
:10065000211531054105510589F7309729F0CF0162
:100660000E94A5028C01C6CF10E000E0C3CF1F920C
:100670000F920FB60F9211242F933F938F939F9356
:10068000AF93BF9380913B0190913C01A0913D01BC
:10069000B0913E0130913A0123E0230F2D3758F5F8
:1006A0000196A11DB11D20933A0180933B019093C7
:1006B0003C01A0933D01B0933E0180913F01909198
:1006C0004001A0914101B09142010196A11DB11DCF
:1006D00080933F0190934001A0934101B093420168
:1006E000BF91AF919F918F913F912F910F900FBE2E
:1006F0000F901F90189526E8230F0296A11DB11D9B
:10070000D2CF1F920F920FB60F9211242F933F93C7
:100710004F935F936F937F938F939F93AF93BF9309
:10072000EF93FF9383E491E00E941602FF91EF9113
:10073000BF91AF919F918F917F916F915F914F91F9
:100740003F912F910F900FBE0F901F9018951F9201
:100750000F920FB60F9211242F938F939F93EF93C5
:10076000FF93E0915301F09154018081E091590190
:10077000F0915A0182FD1BC0908180915C018F5FD6
:100780008F7320915D01821741F0E0915C01F0E0F0
:10079000ED5BFE4F958F80935C01FF91EF919F91F0
:1007A0008F912F910F900FBE0F901F901895808101
:1007B000F4CF789484B5826084BD84B5816084BDB3
:1007C00085B5826085BD85B5816085BD80916E00EF
:1007D000816080936E001092810080918100826020
:1007E000809381008091810081608093810080915D
:1007F00080008160809380008091B100846080934C
:10080000B1008091B00081608093B00080917A0047
:10081000846080937A0080917A00826080937A006D
:1008200080917A00816080937A0080917A0080685C
:1008300080937A001092C10061E082E00E940C0176
:1008400061E083E00E940C0161E084E00E940C0101
:1008500061E085E00E940C0160E086E00E940C01EE
:1008600060E087E00E940C01E0915301F091540197
:1008700082E08083E0914F01F09150011082E0917D
:100880005101F09152018FEC808310925B01E09155
:100890005701F091580186E08083E0915501F09175
:1008A0005601808180618083E0915501F09156016D
:1008B000808188608083E0915501F09156018081AC
:1008C00080688083E0915501F091560180818F7D91
:1008D000808381E090E0909339018093380132E089
:1008E000C32ED12CE12CF12CC0E0D0E060E08DE0F3
:1008F0000E94DE000E94620161E08DE00E94DE0045
:100900000E9462018091380190913901892B09F48C
:100910009BC010923701109236011092350110924F
:10092000340110923901109238010E94B005A701DC
:1009300096010E940806709333016093320189E1A9
:1009400091E00E94A50280913201909133010E94B2
:10095000B20220913201309133012115310571F03D
:100960008091360190913701892B09F47CC081E098
:100970004091340150913501452B09F480E090E01D
:1009800090933101809330012115310571F08091F0
:10099000360190913701892B09F067C081E04091C1
:1009A000340150913501452B09F480E090E090939B
:1009B0002F0180932E01232B39F081E02091340107
:1009C00030913501232B09F480E090E090932D01C4
:1009D00080932C018EE191E00E94A50280912E016E
:1009E00090912F01880F991F209130013091310192
:1009F000822B932B0E94B20286E291E00E94A50214
:100A000080912C0190912D010E94B20210912E0133
:100A10006091300182E00E94DE00612F83E00E943D
:100A2000DE0060E084E00E94DE0060E085E00E947D
:100A3000DE00209709F45ACF0E940202882309F4AD
:100A400055CF0E94000052CF86E00E94B5009093DF
:100A500037018093360187E00E94B50090933501FD
:100A60008093340162CF81E08ACF81E09FCFE3E4BD
:100A7000F1E01382128288EE93E0A0E0B0E084837C
:100A80009583A683B78388E091E09183808385EC8A
:100A900090E09587848784EC90E09787868780EC48
:100AA00090E0918B808B81EC90E0938B828B82EC39
:100AB00090E0958B848B86EC90E0978B868B118EE3
:100AC000128E138E148E08958F929F92AF92BF92C2
:100AD000CF92DF92EF92FF92CF93DF93EC01688188
:100AE00079818A819B81611571058105910521F4C8
:100AF00064E279ED8BE597E02DE133EF41E050E0E2
:100B00000E94080649015A019B01AC01A7EAB1E421
:100B10000E9427066B017C01ACEEB4EFA5019401A5
:100B20000E943506C60ED71EE81EF91EF7FE06C047
:100B300081E0C81AD108E10880E8F80AC882D982A1
:100B4000EA82FB82C701B6019F77DF91CF91FF90C8
:100B5000EF90DF90CF90BF90AF909F908F900895CF
:100B60008F929F92AF92BF92CF92DF92EF92FF92BD
:100B70006091000170910101809102019091030147
:100B8000611571058105910521F464E279ED8BE52C
:100B900097E02DE133EF41E050E00E940806490163
:100BA0005A019B01AC01A7EAB1E40E9427066B0140
:100BB0007C01ACEEB4EFA50194010E943506C60E8F
:100BC000D71EE81EF91EF7FE06C081E0C81AD1083C
:100BD000E10880E8F80AC0920001D0920101E09299
:100BE0000201F0920301C701B6019F77FF90EF90D9
:100BF000DF90CF90BF90AF909F908F9008956093BB
:100C00000001709301018093020190930301089504
:100C1000052E97FB1EF400940E941F0657FD07D077
:100C20000E943A0607FC03D04EF40C941F06509520
:100C30004095309521953F4F4F4F5F4F08959095C8
:100C40008095709561957F4F8F4F9F4F08950E94BB
:100C50005C06A59F900DB49F900DA49F800D911DE3
:100C600011240895B7FF0C9427060E942706821BC3
:100C7000930B0895A1E21A2EAA1BBB1BFD010DC008
:100C8000AA1FBB1FEE1FFF1FA217B307E407F5073C
:100C900020F0A21BB30BE40BF50B661F771F881F18
:100CA000991F1A9469F760957095809590959B01AE
:100CB000AC01BD01CF010895A29FB001B39FC00157
:100CC000A39F700D811D1124911DB29F700D811D78
:100CD0001124911D0895EE0FFF1F0590F491E02D52
:060CE0000994F894FFCF17
:100CE600010000000000000038029801C5018502DD
:100CF600F601D401E8010D0A00696E3A200073740A
:0C0D06006174653A20006F75743A20009B
:00000001FF
