:100000000C9462000C948A000C948A000C948A0070
:100010000C948A000C948A000C948A000C948A0038
:100020000C948A000C948A000C948A000C948A0028
:100030000C948A000C948A000C948A000C948A0018
:100040000C94AA020C948A000C941A030C94F402E7
:100050000C948A000C948A000C948A000C948A00F8
:100060000C948A000C948A000000000024002700F1
:100070002A0000000000250028002B0000000000DE
:1000800023002600290004040404040404040202DA
:100090000202020203030303030301020408102007
:1000A0004080010204081020010204081020000012
:1000B0000008000201000003040700000000000027
:1000C00000004F0411241FBECFEFD8E0DEBFCDBF2C
:1000D00011E0A0E0B1E0E6E1FBE002C005900D9286
:1000E000A631B107D9F721E0A6E1B1E001C01D9228
:1000F000AA3CB207E1F710E0C2E6D0E004C02197C5
:10010000FE010E948305C136D107C9F70E944C0346
:100110000C9489050C940000833081F028F4813020
:1001200099F08230A9F008958730A9F08830C9F09D
:100130008430B1F4809180008F7D03C08091800075
:100140008F7780938000089584B58F7784BD08955C
:1001500084B58F7DFBCF8091B0008F778093B00006
:1001600008958091B0008F7DF9CFCF93DF93282F32
:1001700030E0F901E255FF4F8491F901E656FF4F57
:10018000D491F901EA57FF4FC491CC23A1F081111A
:100190000E948C00EC2FF0E0EE0FFF1FE458FF4FA1
:1001A000A591B491EC91ED2381E090E009F480E019
:1001B000DF91CF91089580E090E0FACF1F93CF9325
:1001C000DF93282F30E0F901E255FF4F8491F901C8
:1001D000E656FF4FD491F901EA57FF4FC491CC2363
:1001E000A9F0162F81110E948C00EC2FF0E0EE0F89
:1001F000FF1FEE58FF4FA591B4918FB7F894EC9183
:10020000111108C0D095DE23DC938FBFDF91CF9111
:100210001F910895DE2BF8CFCF93DF9390E0FC0180
:10022000E656FF4F24918A579F4FFC018491882303
:10023000D1F090E0880F991FFC01E859FF4FA5917C
:10024000B491FC01EE58FF4FC591D49161110EC0DD
:100250009FB7F8948C91E22FE0958E238C932881A0
:10026000E223E8839FBFDF91CF9108958FB7F89481
:10027000EC91E22BEC938FBFF6CF3FB7F8948091CF
:10028000290190912A01A0912B01B0912C0126B552
:10029000A89B05C02F3F19F00196A11DB11D3FBFBE
:1002A000BA2FA92F982F8827BC01CD01620F711D8D
:1002B000811D911D42E0660F771F881F991F4A9587
:1002C000D1F708958F929F92AF92BF92CF92DF9213
:1002D000EF92FF920E943D014B015C0184EFC82E1A
:1002E000DD24D394E12CF12C0E943D016819790999
:1002F0008A099B09683E734081059105A8F321E0B6
:10030000C21AD108E108F10888EE880E83E0981E31
:10031000A11CB11CC114D104E104F10429F7FF9020
:10032000EF90DF90CF90BF90AF909F908F90089507
:10033000AF92BF92CF92DF92EF92FF920F931F93F3
:10034000CF93DF936C017B018B01040F151FEB0131
:100350005E01AE18BF08C017D10759F06991D601E8
:10036000ED91FC910190F081E02DC6010995892B5A
:1003700079F7C501DF91CF911F910F91FF90EF9019
:10038000DF90CF90BF90AF900895FC01538D448DC6
:10039000252F30E0842F90E0821B930B541710F030
:1003A000CF96089501970895FC01918D828D98173D
:1003B00061F0A28DAE0FBF2FB11D5D968C91928D15
:1003C0009F5F9F73928F90E008958FEF9FEF089546
:1003D000FC01918D828D981731F0828DE80FF11D0F
:1003E000858D90E008958FEF9FEF0895FC01918D2A
:1003F000228D892F90E0805C9F4F821B91098F7323
:10040000992708958DE291E00E94F60121E0892B61
:1004100009F420E0822F089580E090E0892B29F0F4
:100420000E94020281110C9400000895FC01A48D29
:10043000A80FB92FB11DA35ABF4F2C91848D90E006
:1004400001968F739927848FA689B7892C93A089E9
:10045000B1898C91837080648C93938D848D981373
:1004600006C00288F389E02D80818F7D8083089506
:10047000EF92FF920F931F93CF93DF93EC0181E0F4
:10048000888F9B8D8C8D98131AC0E889F98980819B
:1004900085FF15C09FB7F894EE89FF896083E889CE
:1004A000F98980818370806480839FBF81E090E0C0
:1004B000DF91CF911F910F91FF90EF900895F62E4D
:1004C0000B8D10E00F5F1F4F0F731127E02E8C8DE7
:1004D0008E110CC00FB607FCFACFE889F98980812C
:1004E00085FFF5CFCE010E941602F1CFEB8DEC0F08
:1004F000FD2FF11DE35AFF4FF0829FB7F8940B8F49
:10050000EA89FB8980818062CFCF682F8DE291E0FC
:100510000C943802CF93DF93EC01888D8823B9F0D7
:10052000AA89BB89E889F9898C9185FD03C08081FE
:1005300086FD0DC00FB607FCF7CF8C9185FFF2CF7B
:10054000808185FFEDCFCE010E941602E9CFDF91B9
:10055000CF9108951F920F920FB60F9211242F93EF
:100560003F938F939F93AF93BF9380912501909179
:100570002601A0912701B09128013091240123E0A8
:10058000230F2D3758F50196A11DB11D209324018D
:100590008093250190932601A0932701B093280111
:1005A0008091290190912A01A0912B01B0912C01F9
:1005B0000196A11DB11D8093290190932A01A0935A
:1005C0002B01B0932C01BF91AF919F918F913F91DF
:1005D0002F910F900FBE0F901F90189526E8230FB4
:1005E0000296A11DB11DD2CF1F920F920FB60F928E
:1005F00011242F933F934F935F936F937F938F9328
:100600009F93AF93BF93EF93FF938DE291E00E948E
:100610001602FF91EF91BF91AF919F918F917F91C2
:100620006F915F914F913F912F910F900FBE0F905F
:100630001F9018951F920F920FB60F9211242F93AF
:100640008F939F93EF93FF93E0913D01F0913E01D3
:100650008081E0914301F091440182FD1BC09081B3
:10066000809146018F5F8F7320914701821741F07F
:10067000E0914601F0E0E35DFE4F958F80934601E7
:10068000FF91EF919F918F912F910F900FBE0F903F
:100690001F9018958081F4CF789484B5826084BDD2
:1006A00084B5816084BD85B5826085BD85B5816076
:1006B00085BD80916E00816080936E0010928100F4
:1006C00080918100826080938100809181008160AF
:1006D0008093810080918000816080938000809170
:1006E000B10084608093B1008091B00081608093FC
:1006F000B00080917A00846080937A0080917A00C3
:10070000826080937A0080917A00816080937A0081
:1007100080917A00806880937A001092C10061E035
:1007200082E00E940C0161E083E00E940C0161E024
:1007300084E00E940C0161E085E00E940C0160E011
:1007400086E00E940C0160E087E00E940C01E091CD
:100750003D01F0913E0182E08083E0913901F0910A
:100760003A011082E0913B01F0913C018FEC8083D3
:1007700010924501E0914101F091420186E08083B1
:10078000E0913F01F0914001808180618083E091A0
:100790003F01F0914001808188608083E0913F01BA
:1007A000F0914001808180688083E0913F01F09169
:1007B000400180818F7D808381E090E090932301D0
:1007C00080932201C0E0D0E060E08DE00E94DE0076
:1007D0000E94620161E08DE00E94DE000E946201E1
:1007E0008091220190912301892B09F449C0109234
:1007F00021011092200110921F0110921E011092EF
:100800002301109222010E94C80410921D0110922F
:100810001C0190E080E00E94850210921B01109262
:100820001A011092190110921801109217011092DA
:10083000160190E080E00E94850290E080E00E9436
:10084000850290E080E00E94850260E082E00E94E4
:10085000DE0060E083E00E94DE0060E084E00E9451
:10086000DE0060E085E00E94DE00209709F4ACCF56
:100870000E940202882309F4A7CF0E940000A4CF9F
:1008800086E00E94B500909321018093200187E0CB
:100890000E94B50090931F0180931E01B4CFEDE23A
:1008A000F1E01382128288EE93E0A0E0B0E084834E
:1008B0009583A683B78388E091E09183808385EC5C
:1008C00090E09587848784EC90E09787868780EC1A
:1008D00090E0918B808B81EC90E0938B828B82EC0B
:1008E00090E0958B848B86EC90E0978B868B118EB5
:1008F000128E138E148E08958F929F92AF92BF9294
:10090000CF92DF92EF92FF92CF93DF93EC01688159
:1009100079818A819B81611571058105910521F499
:1009200064E279ED8BE597E02DE133EF41E050E0B3
:100930000E94200549015A019B01AC01A7EAB1E4DC
:100940000E943F056B017C01ACEEB4EFA501940160
:100950000E944D05C60ED71EE81EF91EF7FE06C002
:1009600081E0C81AD108E10880E8F80AC882D98273
:10097000EA82FB82C701B6019F77DF91CF91FF909A
:10098000EF90DF90CF90BF90AF909F908F900895A1
:100990008F929F92AF92BF92CF92DF92EF92FF928F
:1009A0006091000170910101809102019091030119
:1009B000611571058105910521F464E279ED8BE5FE
:1009C00097E02DE133EF41E050E00E94200549011E
:1009D0005A019B01AC01A7EAB1E40E943F056B01FB
:1009E0007C01ACEEB4EFA50194010E944D05C60E4A
:1009F000D71EE81EF91EF7FE06C081E0C81AD1080E
:100A0000E10880E8F80AC0920001D0920101E0926A
:100A10000201F0920301C701B6019F77FF90EF90AA
:100A2000DF90CF90BF90AF909F908F90089560938C
:100A300000017093010180930201909303010895D6
:100A4000052E97FB1EF400940E94370557FD07D032
:100A50000E94520507FC03D04EF40C9437055095C4
:100A60004095309521953F4F4F4F5F4F089590959A
:100A70008095709561957F4F8F4F9F4F08950E948D
:100A80007405A59F900DB49F900DA49F800D911D9E
:100A900011240895B7FF0C943F050E943F05821B67
:100AA000930B0895A1E21A2EAA1BBB1BFD010DC0DA
:100AB000AA1FBB1FEE1FFF1FA217B307E407F5070E
:100AC00020F0A21BB30BE40BF50B661F771F881FEA
:100AD000991F1A9469F760957095809590959B0180
:100AE000AC01BD01CF010895A29FB001B39FC00129
:100AF000A39F700D811D1124911DB29F700D811D4A
:100B00001124911D0895EE0FFF1F0590F491E02D23
:060B10000994F894FFCFE8
:100B1600010000000000000038029801C5018A02A9
:060B2600F601D401E80114
:00000001FF
