:100000000C945C000C946E000C946E000C946E00CA
:100010000C946E000C946E000C946E000C946E00A8
:100020000C946E000C946E000C946E000C946E0098
:100030000C946E000C946E000C946E000C946E0088
:100040000C9406010C946E000C946E000C946E00DF
:100050000C946E000C946E000C946E000C946E0068
:100060000C946E000C946E00000000080002010069
:100070000003040700000000000000000000000072
:10008000250028002B0000000000240027002A0083
:10009000040404040404040402020202020203032E
:1000A0000303030301020408102040800102040836
:1000B000102001020408102011241FBECFEFD8E049
:1000C000DEBFCDBF21E0A0E0B1E001C01D92AB30AA
:1000D000B207E1F70E9450010C94B0020C940000AA
:1000E00090E0FC01EC55FF4F249180579F4FFC019D
:1000F0008491882399F090E0880F991FFC01EA57BA
:10010000FF4FA591B491FC01E458FF4F8591949164
:100110008FB7F894EC91E22BEC938FBF089590E0A9
:10012000FC01E859FF4F2491FC01EC55FF4F34913D
:10013000FC01E057FF4FE491EE23C9F0222339F090
:10014000233001F1A8F4213019F1223029F1F0E037
:10015000EE0FFF1FE458FF4FA591B4918FB7F894AD
:10016000EC91611126C030953E233C938FBF0895DA
:100170002730A9F02830C9F0243049F78091800059
:100180008F7D03C0809180008F7780938000DFCFC8
:1001900084B58F7784BDDBCF84B58F7DFBCF809115
:1001A000B0008F778093B000D2CF8091B0008F7D68
:1001B000F9CF3E2BDACFCF92EF920F931F93CF93CD
:1001C000DF93162FD42FC22F682F82E00E948F005A
:1001D000612F83E00E948F006D2F84E00E948F00CA
:1001E0006C2F85E00E948F00602F86E00E948F00B8
:1001F0006E2D87E00E948F006C2D88E0DF91CF91FB
:100200001F910F91EF90CF900C948F001F920F923F
:100210000FB60F9211242F933F938F939F93AF9319
:10022000BF938091070190910801A0910901B091BD
:100230000A013091060123E0230F2D3758F501966E
:10024000A11DB11D20930601809307019093080121
:10025000A0930901B0930A018091020190910301DA
:10026000A0910401B09105010196A11DB11D8093DB
:10027000020190930301A0930401B0930501BF9183
:10028000AF919F918F913F912F910F900FBE0F9043
:100290001F90189526E8230F0296A11DB11DD2CFFD
:1002A000789484B5826084BD84B5816084BD85B551
:1002B000826085BD85B5816085BD80916E0081605D
:1002C00080936E0010928100809181008260809303
:1002D0008100809181008160809381008091800005
:1002E0008160809380008091B10084608093B10030
:1002F0008091B00081608093B00080917A0084602A
:1003000080937A0080917A00826080937A00809155
:100310007A00816080937A0080917A00806880936F
:100320007A001092C10082E00E94700083E00E9477
:10033000700084E00E94700085E00E94700086E0FA
:100340000E94700087E00E94700088E00E947000A8
:100350000AE0A02EB12C80E0882E80E0982EC0917B
:100360000001D0910101CE01B5010E949602FC016D
:100370003197E930F10568F4E054FE4F0C94AA027D
:10038000DA01EA01FB010C021E02300242025202B3
:100390006402D12CC12CEE24E394F12C01E010E096
:1003A00021E030E041E050E061E070E081E090E089
:1003B0000E94DB00D12CC12CF12CE12C10E000E0DC
:1003C00030E020E041E050E061E070E090E080E06B
:1003D0000E94DB00CC24C394D12CF12CE12C01E051
:1003E00010E021E030E050E040E061E070E081E0CA
:1003F00090E00E94DB00CC24C394D12CF12CE12CA2
:1004000010E000E021E030E041E050E061E070E029
:1004100081E090E00E94DB00CC24C394D12CEE2438
:10042000E394F12C10E000E030E020E041E050E007
:1004300061E070E090E080E00E94DB00CC24C39497
:10044000D12CEE24E394F12C10E000E021E030E028
:1004500041E050E070E060E081E090E00E94DB006D
:10046000CC24C394D12CEE24E394F12C01E010E0D1
:1004700021E030E041E050E070E060E081E090E0B9
:100480000E94DB00D12CC12CF12CE12C10E000E00B
:1004900030E020E041E050E061E070E081E090E099
:1004A0000E94DB00CC24C394D12CEE24E394F12CE5
:1004B00001E010E021E030E041E050E061E070E078
:1004C00081E090E00E94DB00CC24C394D12CEE2488
:1004D000E394F12C10E000E030E020E041E050E057
:1004E00061E070E081E090E00E94DB00D12CC12C43
:1004F000F12CE12C30E020E050E040E070E060E0E2
:1005000090E080E00E94DB00C930D10560F42196C4
:10051000D0930101C09300018114910409F41FCF0D
:100520000E9400001CCFD0E0C0E0F2CFAA1BBB1B92
:1005300051E107C0AA1FBB1FA617B70710F0A61BE3
:10054000B70B881F991F5A95A9F780959095BC0104
:10055000CD010895EE0FFF1F0590F491E02D099451
:04056000F894FFCF3D
:00000001FF
